:020000040800F2
:10000000004800207D360008290900082B09000857
:100010002F09000833090008370900080000000014
:100020000000000000000000000000003B09000884
:100030003D090008000000003F09000841090008D0
:10004000973600089736000897360008973600085C
:10005000973600089736000897360008973600084C
:10006000973600089736000897360008973600083C
:10007000973600089736000897360008973600082C
:10008000973600089736000897360008973600081C
:10009000973600089736000897360008973600080C
:1000A00061130008973600081F2A000897360008D9
:1000B0009736000897360008795C000897360008E4
:1000C00097360008973600089736000897360008DC
:1000D00097360008F135000897360008E10C000853
:1000E000973600089736000897360008252900083B
:1000F0004B110008C50F0008973600089736000816
:10010000973600089736000897360008973600089B
:10011000973600089736000897360008590C0008F3
:10012000973600089736000897360008973600087B
:10013000973600089736000897360008973600086B
:10014000973600089736000897360008973600085B
:10015000973600089736000897360008973600084B
:10016000973600089736000897360008973600083B
:10017000973600089736000897360008973600082B
:10018000973600089736000800F002F800F0B2F841
:100190000AA090E8000C82448344AAF10107DA45E2
:1001A00001D100F0A7F8AFF2090EBAE80F0013F082
:1001B000010F18BFFB1A43F001031847EC8C000035
:1001C0000C8D00000A444FF0000C10F8013B13F0B6
:1001D000070408BF10F8014B1D1108BF10F8015BA0
:1001E000641E05D010F8016B641E01F8016BF9D193
:1001F00013F0080F1EBF10F8014BAD1C0C1B09D1EA
:100200006D1E58BF01F801CBFAD505E014F8016B5B
:1002100001F8016B6D1EF9D59142D6D370470000ED
:100220000023002400250026103A28BF78C1FBD8FF
:10023000520728BF30C148BF0B6070476E2906F0D7
:10024000F584702906F07983662908F09884652979
:1002500008F09584672908F092846129AFF3008043
:1002600003681B0A28BF41F08001692906F0EA8271
:10027000642906F0E782752906F0E4826F2906F00A
:10028000FB87782906F04583E92906F09587E4295C
:1002900006F09287F52906F08F87EF2906F0F88798
:1002A000F82906F044830368DB0928BF41F0800188
:1002B000632906F00487732906F00987E32907F00C
:1002C000C980F32907F0CE80002070471FB508F0E1
:1002D0004CFC07F02BF804000020002107F050FE32
:1002E000401C60600020002107F034FEE0601FBD6C
:1002F00010B510BD07F09CF91146FFF7E7FF00F0BD
:100300001DF907F0C8F903B4FFF7F2FF03BC03F0CF
:100310000BF9000010B54FF4C87001F08FFDFA48DA
:100320000168FAA006F032FA00BFFE4800680068D3
:100330000128FAD0642003F0D7F8012141F2EC3013
:1003400001F0C8FDF8A006F021FA4FF4FA7003F0AE
:10035000CBF841F2883001F0A9FE022141F27C5035
:1003600001F0B8FD41F2883001F03AFE4FF47A62B4
:100370004FF4E171032001F06AFB0321012001F039
:1003800091FB10BD70B5EA48008800F400400028D9
:1003900077D0E7480078E74908700021E648E54A49
:1003A0001278815400F02EFDE2480178E3A000F0BD
:1003B00029FDE1480078302805D1E1480121826813
:1003C0000020904708E0DC480078392804D1DC4858
:1003D0000021826808469047D7480078312812D11A
:1003E000D4480078032807D0D2480078012803D0E9
:1003F000D0480078022806D10120D2490870D2A046
:1004000000F000FD15E0CC480078302811D1C94833
:100410000078032807D0C7480078012803D0C548D2
:100420000078022805D10020C6490870C8A000F055
:10043000E9FCC0480078032879DDBF480078A0F1C6
:1004400031052946C3A000F0DDFCBB4840783128C7
:1004500004D032282DD0332867D154E0022405E09F
:10046000B548015DA01EBC4A1154641CB148007817
:100470008442F5DB012D05D0022D0AD0032D16D1C3
:100480000EE05AE0B44806F027FBB449096848601A
:1004900000BFB14806F020FBB1490968486000BFC1
:1004A000AD4806F019FB9F490968486000BF00BFCE
:1004B0003BE0022405E0A048015DA01EA94A1154BA
:1004C000641C9C4800788442F5DB012D04D0022D89
:1004D00009D0032D15D10DE0A24806F0FDFA9F4981
:1004E0000968C86000BF9F4806F0F6FA9C49096891
:1004F000C86000BF9B4806F0EFFA8A490968C860E7
:1005000000BF00BF11E0022405E08B48015DA01E82
:10051000954A1154641C874800788442F5DB924860
:1005200006F0DAFA9149088000BF00BF00BF90A032
:1005300000F068FC00207E49088070BD1CB5932047
:1005400000908C48002304224121456A0120A847DD
:10055000912000908848002301224121456A022011
:10056000A847912000908548002302223C21456A3B
:100570000320A8478C2000908148002301223921C4
:10058000456A0420A84701F067FE4FF4A06003F01D
:1005900095F8A82002F046FF4FF4E13002F0D2FFB8
:1005A000784841685420884700F0D4FA532000F07E
:1005B00059FC532000F084FCA72000F0B8FC01F0A7
:1005C00064FB4FF479704FF4FA61CDE90010634891
:1005D0000B4601224FF4B47185681046A84740F2DB
:1005E00056404FF4FA61CDE900105D480B460122F8
:1005F0004FF4B47185680220A8475848C1680120AB
:1006000088475748C1680220884741222321022099
:1006100001F01DFA3C222321012001F018FA5A4969
:1006200008688047594908688047454908688047F5
:1006300002F0A6FC02F026FD02F0C1FE4FF4FA71B2
:10064000534804F0E8F94FF4FA71514804F0E5F921
:100650004FF4FA714E4804F0E2F94FF4FA714C4845
:1006600004F0DFF9012002F017F84A4880ED060A8D
:10067000022002F011F8484880ED060A032002F03B
:100680000BF8464880ED060A042002F005F84448BD
:1006900080ED060A4FF47A7002F026FF4FF41650F0
:1006A00000F04EFB642002F01FFF0020204908806C
:1006B000012001F0F1FF374880ED060A022001F029
:1006C000EBFF354880ED060A032001F0E5FF3348D3
:1006D00080ED060A042001F0DFFF314880ED060AB4
:1006E000002002F0B3F910E1FFF74CFE2D48016B3A
:1006F00001208847012002F0E2FD642002F0F4FEB0
:1007000029480088032851E06C00002020B5CDD393
:10071000DAB9E2B5E7C3C52C6E6F77706F733A250F
:1007200064200A00A800002020CFC2BDB50A000046
:100730002E0000201200002010060020256400007A
:100740003C000020060000207374617274000000F9
:10075000656E640020256400070000207000002002
:100760008C0000200B0000200F000020140000204F
:100770000D0A000078010020A4010020D001002013
:10078000FC010020880300204C00002060000020B5
:1007900000040040C8000020F400002020010020D8
:1007A0004C010020980200200400002023D10121E8
:1007B000002001F023FA00BF5648006800680128B5
:1007C000FAD041F2707002F08FFE0121002001F09A
:1007D00069F900BF4F48006800680128FAD04FF45B
:1007E000C87002F081FE4FF49671012001F07BFA8F
:1007F00000204949088048480088042826D1022161
:10080000002001F0FBF9642002F06EFE00BF4348B7
:10081000006800680128FAD041F2883002F064FED6
:100820000221002001F03EF900BF3C48006800684A
:100830000128FAD04FF4967002F056FE4FF49671EC
:10084000022001F050FA0020334908803448808C9F
:10085000012817D1324890ED000AF3EE0E0AB4EEEB
:10086000E00AF1EE10FA0DDD2B480088012809D1CD
:100870002C4841680020884720B9FFF74BFD022033
:10088000254908802448008802281AD12448808CF1
:10089000012816D1224890ED000AF3EE040AB4EEC6
:1008A000E00AF1EE10FA0CD21E4841680020884799
:1008B000012806D14FF4967001F07FFA0120164905
:1008C0000880002000F064F90446DCB1012C08D057
:1008D000022C0BD0032C0ED0042C12D102F06FFD91
:1008E0000FE04FF47A6001F07BFB0AE04FF47A608E
:1008F00001F0DCFB05E0012141F2941001F0EAFA7D
:1009000000BF02E00A2002F0EFFDEDE60249088098
:100910007047000070000020040000208C000020C0
:100920009802002060000020704700BFFEE700BF73
:10093000FEE700BFFEE700BFFEE770477047704765
:10094000704700000CB500200190009076480068C8
:1009500040F480307449086000BF7348006800F4B8
:10096000003000900198401C0190009818B901983F
:10097000B0F5A04FF1D16C48006800F4003010B120
:100980000120009001E0002000900098012846D14D
:1009900065484030006840F080506349403108604D
:1009A0006248006840F44040604908605E48083092
:1009B00000685D49083108600846006840F400405E
:1009C00008600846006840F4A05008605848091FB5
:1009D0000860081F006840F08070091F086000BFB1
:1009E0005148006800F000700028F9D040F205700E
:1009F000504908604C480830006820F003004A491C
:100A0000083108600846006840F00200086000BF36
:100A100045480830006800F00C000828F8D10CBDEB
:100A200010B54548006840F47000434908603E48EE
:100A3000006840F001003C49086000203A49083154
:100A40000860394800683D490840374908603C481B
:100A5000091D0860081F006820F48020091F086035
:100A6000002031490C310860FFF76CFF4FF0006047
:100A700031498039086010BD70B500200022022382
:100A800000240221284D08352D6805F00C0020B106
:100A9000042806D0082834D107E02A4D2A4E3560B4
:100AA00033E02A4D284E35602FE01F4D2D1D2D6857
:100AB000C5F380541C4D2D1D2D6805F03F0154B128
:100AC000224DB5FBF1F5184E361D3668C6F3881673
:100AD00005FB06F209E01B4DB5FBF1F5124E361D84
:100AE0003668C6F3881605FB06F20F4D2D1D2D68DE
:100AF000C5F301456D1C6B00B2FBF3F5124E35607A
:100B000003E0104D104E356000BF00BF064D0835A4
:100B10002D68C5F303150E4E705D0B4D2D68C54055
:100B2000094E356070BD0000003802400070004082
:100B300008544007003C024088ED00E0FFFFF6FE4D
:100B4000103000240024F4001800002000127A0065
:100B50001C0000201CB50121112003F043F91C20CA
:100B6000009000208DF8040003208DF8050001207E
:100B70008DF807006946354802F096FE0120009086
:100B800002208DF807006946314802F08DFE1CBD39
:100B900010B5044614B101202E4908702D48007884
:100BA000002837D01021294802F0E0FE78B1082152
:100BB000264802F0DBFE50B10421244802F0D6FEA4
:100BC00028B10121224802F0D1FE012822D10A20B9
:100BD00002F08AFC00201F49087010211B4802F017
:100BE000C5FE08B9012010BD0821184802F0BEFE5C
:100BF00008B90220F7E70421144802F0B7FE08B94B
:100C00000320F0E70121124802F0B0FE01281BD1B9
:100C10000420E8E710210D4802F0A8FE012813D1B6
:100C200008210A4802F0A2FE01280DD1042107483C
:100C300002F09CFE012807D10121054802F096FE32
:100C400010B90120034908700020CCE700100240D1
:100C5000000002402C00002010B501211E4804F0C5
:100C6000A4F968B11D48008840F400401B49088081
:100C70000121194804F0AAF90021174803F066FD84
:100C800010BD7FB505460C460121202003F0F3F886
:100C90000195ADF800400020ADF80800ADF8020065
:100CA00069460D4803F0C9FC012211460A4804F0C8
:100CB00065F90121084803F049FD37208DF80C0043
:100CC00000208DF80D0001208DF80E008DF80F002A
:100CD00003A802F0F8FC7FBD001400402E000020A5
:100CE00010B540F22551594803F0B0FB00B3574806
:100CF00003F0EAFAC4B25648008800F40040B8B9DC
:100D000053480088B0F5C87F13DA0021514803F03A
:100D1000DDFC4F48008818B901214E4803F016FD4C
:100D20004B4801880088401C494A10804A48445476
:100D300005E04748008840F400404549088010BD60
:100D400010B588B00446414803F0A0F90121022003
:100D500003F048F80121880403F08DF84FF4406057
:100D6000059002208DF818008DF8190000208DF8EC
:100D70001A0001208DF81B0005A9384802F094FDE7
:100D800007220B21354802F01AFE07220A213348B8
:100D900002F015FE01940020ADF80800ADF80A003D
:100DA000ADF80C00ADF810000C20ADF80E0001A954
:100DB000264803F0D2F9012240F22551234803F0DE
:100DC0000AFB0121214803F050FA27208DF81C006E
:100DD00002208DF81D0003208DF81E0001208DF8E3
:100DE0001F0007A802F06FFC42F2CF016320FFF75B
:100DF00048FF0021174803F0A9FC0020144908808F
:100E000008B010BD0FB438B505A800901448009A7A
:100E1000049905F0A9FC00200090114805F069FE36
:100E200085B200240DE000BF4021084803F0F8FA25
:100E30000028F9D00A48015D044803F041FA601C1B
:100E400084B2AC42EFDB38BC5DF814FB00480040D4
:100E50002E00002000140040100600200004024074
:100E6000800400201FB504460121080203F003F8A6
:100E7000A0B2ADF800000020ADF8020041F28830C9
:100E800001900020ADF808006946FE4803F0D5FB4C
:100E900001221146FB4804F071F80121F94803F0E2
:100EA00055FC2D208DF80C0003208DF80D008DF8D9
:100EB0000E0001208DF80F0003A802F004FC1FBDF6
:100EC0001FB504460121802002F0D5FFA0B2ADF885
:100ED00000000020ADF8020041F2883001900020AF
:100EE000ADF808006946E84803F0A7FB0121E64891
:100EF00003F00EFC0121E44804F068F801221146D9
:100F0000E14804F03BF80121DF4803F01FFC2C20EE
:100F10008DF80C0003208DF80D0002208DF80E00D6
:100F200001208DF80F0003A802F0CDFB1FBD1FB5F7
:100F300004460121080402F0AFFF4FF4FA7002905A
:100F4000A0B2ADF804000020ADF80600ADF80C002A
:100F500001A9CE4803F071FB01221146CB4804F0F1
:100F60000DF80121C94803F0F1FB18208DF80000AD
:100F700003208DF8010001208DF802008DF8030098
:100F8000684602F0A0FB1FBD10B5C148006807F01D
:100F9000B3FA41EC100B10BD10B52DED028BB0EE85
:100FA000408AF0EE608A51EC180B07F061FAB849FC
:100FB0000860BDEC028B10BD411EB24AD1624108EF
:100FC0009163704770B5B348006800F58050D0F861
:100FD000E462B048006800F58050D0F8E842AD48BF
:100FE000006800F58050D0F8F0520121A54803F0C8
:100FF000DCFF012839D1A848006808B9012000E0C9
:101000000020A5490860A348006800F58050D0F88A
:10101000F402401C9F49096801F58051C1F8F402AF
:101020009C48006800F58050D0F8000301281DD1CD
:101030009848006800F58050D0F8F4129548006890
:1010400000F58050D0F8F802814270D300218D481D
:1010500003F07CFB00218F48006800F58050C0F849
:10106000001300208B490968086060E08948006827
:1010700000F58050D0F80003022815D18748416858
:1010800000208847002852D100217E4803F05EFBF3
:1010900000218048006800F58050C0F8001300204F
:1010A0007C490968086042E07A48006800F5805091
:1010B000D0F8F4027649086008460068A04209D8D2
:1010C000744909681C31724A126851F82200FFF70E
:1010D00073FF2CE028196E49096888420ED36C48CA
:1010E000016804F10A00814221D26A49096801F5C8
:1010F0008051D1F8DC02FFF75FFF18E06448006818
:10110000B0420CD26349096801F67C11604A12684A
:10111000121B521B51F82200FFF74EFF07E000217F
:10112000584803F013FB00205A4909680860012160
:10113000544803F04BFF70BD411E534A2C321160DE
:101140004108514A38321160704770B55448006800
:1011500000F58050D0F8E4625148006800F58050F6
:10116000D0F8E8424E48006800F58050D0F8F052C0
:101170000121454803F019FF01283BD146480838B2
:10118000006808B9012000E00020434908390860E0
:101190004348006800F58050D0F8F402401C4049F4
:1011A000096801F58051C1F8F4023D48006800F576
:1011B0008050D0F8000301281DD13948006800F59F
:1011C0008050D0F8F4123648006800F58050D0F80E
:1011D000F80281420ED300212B4803F0B7FA002118
:1011E0002F48006800F58050C0F8001300202C49FB
:1011F00009680860A9E02A48006800F58050D0F826
:101200000003032820D1274841680020884701288F
:1012100019D100211C4803F099FA2148006800F513
:101220008050D0F8F4022049096808441E4908603B
:1012300000211B48006800F58050C0F80013002012
:1012400017490968086080E01548006800F580507B
:10125000D0F80003022835D11148006800F580500D
:10126000D0F8F4120E48006800F58050D0F8F8026B
:1012700081426AD300200C4908600021024803F033
:1012800065FA13E000200040001C004000400140CF
:1012900030000020700000209C8240424C00002062
:1012A000A8000020600000206C0000200021894878
:1012B000006800F58050C0F80013002085490968D7
:1012C000086042E08348006800F58050D0F8F402DE
:1012D0008149086008460068A04209D87D4909682C
:1012E0001C317D4A126851F82200FFF725FF2CE0DF
:1012F00028197949096888420ED37748016804F1B2
:101300000A00814221D27349096801F58051D1F860
:10131000DC02FFF711FF18E06F480068B0420CD202
:101320006C49096801F67C116B4A1268121B521B4A
:1013300051F82200FFF700FF07E00021674803F0A3
:1013400005FA00206349096808600121634803F039
:101350003DFE70BD411E624AD162410891637047F3
:1013600070B56048006800F58050D0F8E4625D48D0
:10137000006800F58050D0F8E8425A48006800F54F
:101380008050D0F8F0520121554803F00EFE01289C
:1013900039D15548006808B9012000E000205249C1
:1013A00008605048006800F58050D0F8F402401CF6
:1013B0004C49096801F58051C1F8F40249480068B8
:1013C00000F58050D0F8000301281DD14548006881
:1013D00000F58050D0F8F4124248006800F58050C3
:1013E000D0F8F802814270D300213D4803F0AEF9F5
:1013F00000213C48006800F58050C0F80013002030
:1014000038490968086060E03648006800F5805097
:10141000D0F80003022815D13448416801208847DC
:10142000002852D100212E4803F090F900212D48C8
:10143000006800F58050C0F80013002029490968B1
:10144000086042E02748006800F58050D0F8F402B8
:101450002149086008460068A04209D82149096866
:101460001C311D4A126851F82200FFF773FF2CE06F
:1014700028191949096888420ED31748016804F1F0
:101480000A00814221D21749096801F58051D1F83B
:10149000DC02FFF75FFF18E00F480068B0420CD293
:1014A0001049096801F67C110B4A1268121B521B85
:1014B00051F82200FFF74EFF07E00021084803F033
:1014C00045F900200749096808600121044803F034
:1014D0007DFD70BDA800002030000020001C0040F1
:1014E000004001408C000020988240424C000020C7
:1014F000014600203B4A52F8210070471CB56C2081
:10150000009001208DF8040000208DF806000320D3
:101510008DF8050001208DF807006946324802F079
:10152000C3F90421304802F03DFA08212E4802F0A8
:1015300039FA20212C4802F035FA40212A4802F0DD
:1015400031FA1CBD10B5FFF7D9FF10BD70B50446C8
:101550000D46012D21D10120224941F82400012C02
:1015600006D0022C09D0032C0CD0042C14D10EE090
:1015700004211D4802F014FA0EE008211A4802F076
:101580000FFA09E02021184802F00AFA04E040218D
:10159000154802F005FA00BF22E00DBB00201149FA
:1015A00041F82400012C06D0022C09D0032C0CD0C9
:1015B000042C14D10EE004210B4802F0F3F90EE0E4
:1015C0000821094802F0EEF909E02021064802F05E
:1015D000E9F904E04021044802F0E4F900BF00BF4B
:1015E00070BD0000A0070020001802401CB50121BA
:1015F000402002F0F7FB1220009000208DF804003C
:1016000003208DF8050001208DF807006946214868
:1016100002F04AF91CBD10B5FFF7E8FF10BD10B588
:10162000044624B1012C16D0022C2ED127E0022131
:10163000184802F09BF9012803D1174941F824000A
:1016400003E00020144941F82400134850F8240016
:101650001249086019E010210E4802F087F90128AC
:1016600003D10D4941F8240003E000200A4941F864
:101670002400094850F824000849086005E006489D
:1016800050F824000549086000BF00BF0348006807
:1016900010BD000000180240B007002048000020E4
:1016A0001CB50121402002F09DFB0120009000208C
:1016B0008DF8040003208DF8050001208DF8070047
:1016C0006946164802F0F0F81CBD10B5FFF7E8FFB8
:1016D00010BD10B5044614B1012C1AD113E001213C
:1016E0000E4802F043F9012803D10D4941F82400C6
:1016F00003E000200A4941F82400094850F824007A
:101700000849086005E0064850F8240005490860CB
:1017100000BF00BF0348006810BD00000018024071
:10172000540000205C000020F0B50446DDE90556B9
:10173000012C04D0022C04D0032C06D103E0FE4877
:1017400003E0FE4801E0FE4800BF00BF076807F560
:101750008057C7F8E042076879600768BA60076891
:10176000FB6007683D6107687E61F0BD2DE9F14FC0
:101770002DED0C8B88B01498012804D0022804D0D9
:10178000032806D103E0EC4C03E0EC4C01E0EC4C08
:1017900000BF00BF2068406901902068D0F80C901D
:1017A0002068D0F810B0206846689DED010AB8EEB8
:1017B000400AF0EE000A20EE200ABCEEC00A8DEDD1
:1017C000060A4FF47A707043B0FBF9F005904FF4BD
:1017D0007A707043B0FBFBF10491DDE9041008441A
:1017E0007043D849B0FBF1F1019881422BD901989F
:1017F00000FB09F000FB0BF0C0EB0010C00009EB90
:101800000B01B0FBF1F0009006F076FE41EC190BF5
:10181000B0EE490AF0EE690A06F057FBB0EE408AD6
:10182000F0EE608A51EC180B06F022FE06464FF4EB
:101830007A7106FB01F0B0FBF9F0059006FB01F0B0
:10184000B0FBFBF0049000EE106AB8EE400A60EEC8
:10185000000AC9EB0910C00000EE100AB8EE401AE9
:1018600080EE810ADFEDB80A20EE200ABCEEC00A45
:1018700010EE10AA00EE106AB8EE400A60EE000A00
:10188000CBEB0B10C00000EE100AB8EE400A80EE61
:10189000801A9FEDAD0A21EE000ABCEEC00A10EEE0
:1018A000108A0AEB08010698814206D20698A0EB3E
:1018B0000A00A0EB0800079001E000200790C82173
:1018C00009FB01F1480806F017FE41EC1B0BB0EED6
:1018D0004B0AF0EE6B0A06F0F8FAB0EE40AAF0EE12
:1018E00060AA53EC1A2B9FED990B51EC100B06F0EC
:1018F00037FC9FED980B53EC102B06F031FC06F0F3
:10190000B7FD074600200390002544E002992068B7
:101910001C3040F825106D1C00EE105AB8EE400A3D
:1019200010EE100A07F0B0F841EC1D0BB0EE4D0AB6
:10193000F0EE6D0A06F0C9FAB0EE40BAF0EE60BA09
:10194000681C00EE100AB8EE400A10EE100A07F00C
:101950009BF841EC1D0BB0EE4D0AF0EE6D0A06F05F
:10196000B4FAB0EE40CAF0EE60CA53EC1B2B51EC57
:101970001C0B06F04DFB41EC190B384606F0BCFD84
:1019800041EC1A0B53EC192B06F0EAFB41EC180B57
:1019900006F06EFD02905545B8D9079858B14FF43E
:1019A000C87070436D49B1FBF0F70025206800F561
:1019B0008050C0F8DC7200200390002502210398BB
:1019C00001FB0701A8EB05008000401EB1FBF0F011
:1019D00007441FE0206800F67C1040F825706D1C5D
:1019E00002970221039801FB0701A8EB0500800084
:1019F000401EB1FBF0F007440222DDE9021002FBB9
:101A00000101A8EB05008000401EB1FBF0F200FBD5
:101A1000121003904545DDD90698216801F58051E3
:101A2000C1F8E402206800F58050C0F8E8A2206800
:101A300000F58050C0F8EC820798216801F58051CC
:101A4000C1F8F00208B0BDEC0C8BBDE8F88F30B5E2
:101A50000346012B04D0022B04D0032B06D103E054
:101A6000354803E0354801E0354800BF00BF4FF47A
:101A7000C8744C43394DB5FBF4F5046804F5805443
:101A8000C4F8FC5200EE102AB8EE400AF0EE000A4C
:101A900020EE200ABCEEC00A046804F5805484EDF0
:101AA000BE0A30BD70B505460E46012E04D0022E8A
:101AB00004D0032E06D103E01F4C03E01F4C01E0CD
:101AC0001F4C00BF00BF0121206800F58050C0F806
:101AD00000130021206800F58050C0F8F41220683F
:101AE0008560012021680860012E04D0022E13D0E9
:101AF000032E10D149E01A4805600121194802F06F
:101B000025FE216801F58051D1F8FC02FFF754FA57
:101B100015A004F03BFE6FE01148001D0560012197
:101B2000144802F013FE216801F58051D1F8FC023F
:101B3000FFF710FC10A025E0700000208C000020B2
:101B4000A8000020C0D401000000484300000000AD
:101B5000748C5D410000000000000040008793038A
:101B6000808242420020004020B4F2BFAA74696D16
:101B700031340A000040014020B4F2BFAA74696DFC
:101B8000390A000004F002FE36E0FE480560012D2F
:101B90000AD1206800F58050D0F8F802FA490968A7
:101BA0000844F949086016E0206800F58050D0F834
:101BB000F802F5490968884203D30020F249086019
:101BC00009E0206800F58050D0F8F802EE49096875
:101BD000081AED4908600121EC4802F0B7FD2168C0
:101BE00001F58051D1F8FC02FFF7A6FAE64801683A
:101BF000E7A004F0CBFD00BF00BF70BD70B5054687
:101C00000E46012E04D0022E04D0032E06D103E08E
:101C1000E44C03E0E44C01E0E44C00BF00BF0120D1
:101C2000216808600021206800F58050C0F8F41297
:101C300020688560012E04D0022E0ED0032E22D102
:101C400017E0D048083805600121D94802F07EFD30
:101C5000AFF2EC0004F09AFD15E0CA48001F0560E1
:101C60000121D44802F072FDAFF2F40004F08EFDC1
:101C700009E0C44805600121C44802F067FDCEA018
:101C800004F084FD00BF00BF70BD1CB5012102201F
:101C900002F0A8F80121202002F0A4F8E020009032
:101CA00001208DF8040003208DF8050000208DF838
:101CB000060001208DF807006946C24801F0F4FDD6
:101CC0000720009001208DF8040000208DF8060008
:101CD00003208DF8050001208DF807006946BA48F9
:101CE00001F0E2FD1CBD2DE9F04105460E46012D37
:101CF00002D0022D04D101E0AA4C01E0AA4C00BFA1
:101D000000BF0120216888600221206800F5805012
:101D1000C0F800130021206800F58050C0F8F412CC
:101D20000120216808604FF4C8707043A749B1FBD7
:101D3000F0F1206800F58050C0F80413012D04D0A4
:101D4000022D16D0032D35D127E001208D49083909
:101D500008600121964802F0F9FC216801F58051E4
:101D6000D1F80403FFF728F9AFF2042004F00EFDC8
:101D700020E001208349091F086001218D4802F0FD
:101D8000E5FC216801F58051D1F80403FFF7E2FA80
:101D9000AFF21C2004F0FAFC0CE07B480068470816
:101DA0003A4631460320FFF752FE03210020FFF799
:101DB00079FE00BF00BFBDE8F08110B504464FF4C6
:101DC000C87060438149B1FBF0F17848006800F5C4
:101DD0008050C0F8FC1200206A4908600221734854
:101DE000006800F58050C0F8001300216F480068BB
:101DF00000F58050C0F8F41200206C490968886032
:101E000001206A49096808605F4890ED000AB8EE51
:101E1000400ABCEEC00A6548006800F5805080EDBD
:101E2000BE0A6249096801F58051D1F8FC02FFF74A
:101E300083F90121554802F089FC10BD10B5044614
:101E400096206349086063490860634908606349F4
:101E5000086060484169022088475D484169012067
:101E600088475D484169032088475C4841690420F0
:101E700088474FF4C87060435449B1FBF0F14B48B8
:101E8000006800F58050C0F8FC1201203D49086050
:101E900003214648006800F58050C0F80013002177
:101EA0004248006800F58050C0F8F41201203F4914
:101EB000096888603D49096808603C49096801F57E
:101EC0008051D1F8FC02FFF737F901212F4802F0C9
:101ED0003DFC10BD70B504460D46344822464FF413
:101EE000C87103690320984703210120FFF7DAFD39
:101EF000012D19D1962036490860364908603649C7
:101F000008603649086033484169022088473048F4
:101F100041690120884730484169032088472F489C
:101F20004169042088470CE096202B4908602B4922
:101F300008602948416903208847284841690420EE
:101F4000884700BF1948006800680128FAD04FF49C
:101F5000FA701F4908601F4908601F4908601F493F
:101F600008601C48416902208847194841690120DE
:101F70008847194841690320884718484169042067
:101F8000884770BD888242426C000020001C0040DF
:101F900020B4F2BFAA74696D313320CEBBD6C33AE8
:101FA00025640A00700000208C000020A80000209A
:101FB000002000400040014020B4F2BFAA74696DC7
:101FC00031330A00000402400014024000879303EA
:101FD0002802002044020020600200207C02002031
:101FE00010B5044602210020FFF708FE6420614975
:101FF0000860614908605F484169032088475E487E
:10200000416904208847642001F06EFA4FF4AF6202
:1020100091100320FFF71BFD03210020FFF742FD75
:1020200000BF5648006800680128FAD04FF4FA70E3
:1020300050490860504908604E484169032088476C
:102040004D48416904208847204601F04DFA02219D
:102050000020FFF727FD64204649086046490860D4
:102060004448416903208847434841690420884720
:1020700000BF4248006800680128FAD04FF4FA70A7
:102080003C4908603C4908603A4841690320884758
:1020900039484169042088474FF4C87001F024FA98
:1020A0004FF496710220FFF71EFE10BD10B50446D6
:1020B00001210020FFF7A2FD642031490860314969
:1020C000086008464169022088472D48416901207F
:1020D000884740F2DC524FF4AF710320FFF7B7FCA2
:1020E00003210020FFF7DEFC00BF274800680068DE
:1020F0000128FAD04FF4FA7021490860214908609C
:1021000008464169022088471D48416901208847E7
:10211000204601F0E9F901210020FFF7C3FC64200B
:102120001749086017490860084641690220884736
:10213000134841690120884700BF134800680068C0
:102140000128FAD04FF4FA700D4908600D49086073
:1021500008464169022088470948416901208847AB
:102160004FF4FA7001F0C0F94FF496710120FFF7B7
:10217000BAFD10BD600200207C0200208C0000200F
:102180002802002044020020700000207FB5044691
:102190000D460121402001F06EFEADF800500020F8
:1021A000ADF802000194ADF808006946FC4802F061
:1021B00044FA0121FA4802F0ABFA0121F84802F092
:1021C00005FF01221146F64802F0D8FE0121F4482D
:1021D00002F0BCFA2B208DF80C0002208DF80D00C7
:1021E0008DF80E0001208DF80F0003A801F06BFAA6
:1021F0007FBD7FB504460D460121880401F04CFEE9
:10220000ADF800500020ADF802000194ADF80800D0
:102210006946E44802F011FA0121E24802F078FA36
:102220000121E04802F0D2FE01221146DD4802F011
:10223000A5FE0121DB4802F089FA1A208DF80C0076
:1022400002208DF80D0001208DF80E008DF80F0092
:1022500003A801F038FA7FBD00B587B00121084618
:1022600001F0C0FD0121022001F0BCFD012104208C
:1022700001F0B8FD0121202001F0B4FD0121880307
:1022800001F0F9FD0121C80301F0F5FD05220D2142
:10229000C54801F094FB05220221C44801F08FFBE0
:1022A00006220A21C14801F08AFB06220B21BF4801
:1022B00001F085FB4FF40050059002208DF81800C6
:1022C00000208DF81A0003208DF8190001208DF8E8
:1022D0001B0005A9B44801F0E7FA0420059002208C
:1022E0008DF8180000208DF81A0003208DF81900D1
:1022F00001208DF81B0005A9AC4801F0D5FA4FF478
:102300004060059002208DF8180000208DF81A001A
:1023100003208DF8190001208DF81B0005A9A348A2
:1023200001F0C2FA1820059001208DF81800002055
:102330008DF81A0003208DF8190001208DF81B007C
:1023400005A99A4801F0B0FA2020059000208DF8E8
:10235000180003208DF8190001208DF81B0005A935
:10236000924801F0A1FAC020059001208DF81800D4
:1023700000208DF81A0003208DF8190001208DF837
:102380001B0005A98A4801F08FFA20200590002043
:102390008DF8180003208DF8190001208DF81B001E
:1023A00005A9834801F080FA8020059001208DF86E
:1023B000180000208DF81A0003208DF81900012064
:1023C0008DF81B0005A97B4801F06EFA4FF4805090
:1023D000059001208DF8180000208DF81A000320C8
:1023E0008DF8190001208DF81B0005A96F4801F038
:1023F0005BFA02216F4801F0D3FA80216D4801F0A9
:10240000CFFA4FF48051694801F0CAFA012108035C
:1024100001F097FD00214FF4805001F092FD012161
:10242000880301F07DFD00214FF4804001F078FD2C
:102430000121C80301F074FD00214FF4004001F0B8
:102440006FFD0020ADF800004FF48270ADF802007F
:102450000020ADF804000220ADF806000120ADF820
:1024600008004002ADF80A001820ADF80C0000206A
:10247000ADF80E000720ADF8100069464E4802F096
:10248000CDFE01214C4802F0C3FF69464B4802F0E3
:10249000C5FE0121494802F0BBFF42F2D0014FF4D2
:1024A0007A60FFF773FE42F2D0014FF47A70FFF7C3
:1024B000A0FE07B000BD10B50446414800884FF6A5
:1024C000C77108403E4908800846008820430880BC
:1024D00001213B4802F09CFF10BD70B5002500248F
:1024E00000BF0821314801F05DFA00BF10212F48DC
:1024F00001F058FA00BF08212C4801F053FA0025DA
:1025000015E01021294801F04BFA640020212748EA
:1025100001F02CFA012802D144F0010400E000BFD0
:102520001021224801F03EFA00BF681CC5B2102DF0
:10253000E7DB08211D4801F033FA6400240904EBAD
:10254000C40000EB0410C0EB00304FF49671C1EBF7
:1025500010346420B4FBF0F080B270BD70B500257B
:10256000002400BF4021124801F01CFA00BF802166
:102570000F4801F017FA00BF40210D4801F012FA90
:10258000002527E080210A4801F00AFA6400202192
:10259000074801F0EBF9012814D144F0010412E0DE
:1025A00000180040004801400004024000080240BA
:1025B000001402400000024000380040003C00408F
:1025C0000030014000BF8021FC4801F0EBF900BF62
:1025D000681CC5B2102DD5DB4021F84801F0E0F9A8
:1025E0006400240904EBC40000EB0410C0EB0030CD
:1025F0004FF49671C1EB10346420B4FBF0F080B25C
:1026000070BD10B5044600BF0221ED4802F0CAFFBC
:102610000028F9D0FF21EA4802F07BFF00BF01212A
:10262000E74802F0BFFF0028F9D0E54802F06EFF4E
:10263000C0B210BD10B5044600BF0221E14802F04F
:10264000B1FF0028F9D0FF21DE4802F062FF00BF91
:102650000121DC4802F0A6FF0028F9D0D94802F099
:1026600055FFC0B210BD10B5044600BF0221D648C8
:1026700002F098FF0028F9D0FF21D34802F049FF6B
:1026800000BF0121D04802F08DFF0028F9D0CE48CC
:1026900002F03CFFC0B210BD2DE9F0412DED068BDC
:1026A0000746002600240025A0469FEDC80AB0EE8C
:1026B000408A012F06D0022F0DD0032F34D0042FD3
:1026C00066D13AE0FFF74AFF00EE100AB8EE400A82
:1026D000B0EE408A5CE08021BD4801F063F9FF2044
:1026E000FFF7A8FF05462C462402FF20FFF7A2FFB4
:1026F00005468021B64801F053F92C4304F0040844
:1027000066003609304605F0F7FE41EC1A0B9FEDE6
:10271000B10B53EC102B05F003FF41EC190B05F046
:1027200045FC08EE100A33E0FFF7D7FE00EE100A72
:10273000B8EE400AB0EE408A2AE04FF48051A74834
:1027400001F030F9FF20FFF78EFF05462C462402EA
:10275000FF20FFF788FF05464FF480519F4801F0A6
:102760001FF92C4304F0040866003609304605F0D2
:10277000C3FE41EC1A0B9FED970B53EC102B05F0A9
:10278000CFFE41EC190B05F011FC08EE100A00BF5A
:1027900000BFB0EE480ABDEC068BBDE8F08170B515
:1027A0002DED028B06469FED890AB0EE408A304639
:1027B000FFF772FFF0EE408A012E06D0022E06D0FF
:1027C000032E06D0042E08D105E0854C05E0854C8B
:1027D00003E0854C01E0854C00BF00BFC4ED078AD3
:1027E00094ED070AD4ED060A30EE600AF0EE000A16
:1027F000B4EEE00AF1EE10FA15DC94ED060AD4ED21
:10280000070A30EE600AF0EE000AB4EEE00AF1EEDC
:1028100010FA08DC94ED070AF2EE040AB4EEE00ABE
:10282000F1EE10FA0ED294ED060A84ED070AA06AC2
:10283000401CA062A06A062806D3C4ED078A0020C7
:10284000A06201E00020A062002517E004F1100062
:10285000691C00EB810090ED000A04F1100000EB10
:10286000850080ED000A04F1100000EB850090ED7A
:10287000000A30EE080AB0EE408A6D1C032DE5D345
:10288000B0EE080AC8EE000AC4ED010ABDEC028BE6
:1028900070BD2DE9F0410746012F06D0022F07D069
:1028A000032F08D0042F0CD108E04D4C504D08E008
:1028B0004C4C504D05E04C4C4F4D02E04B4C4F4DB5
:1028C00000BF00BF3846A96A88472E6A002E20DD67
:1028D0000A2E00DC0A26E068322814D206EBD672F3
:1028E000E168B1EB620F05D2454920688A68012191
:1028F000904704E0424920688A6800219047E068D8
:10290000401CE0600CE0E068322809D30020E06061
:1029100006E0002E04DC3A4920688A6800219047CE
:10292000BDE8F08100B52DED088B87B00121354859
:1029300002F03BFB01286AD12B48416A03208847FB
:102940002A48416A042088472548416A012088476F
:102950002448416A02208847244890ED010A10EE7D
:10296000101A084606F090F841EC180B1E4890ED3E
:10297000010A10EE101A084606F086F841EC190B11
:10298000184890ED010A10EE101A084606F07CF87F
:1029900041EC1A0B124890ED010A10EE101A08468D
:1029A00006F072F841EC1B0B8DED048B8DED029B54
:1029B0008DED00AB53EC1B2B26E028E00014024009
:1029C0000030014000380040003C004000000000A2
:1029D00000000240000000000000D03F000802405C
:1029E000C8000020F4000020200100204C0100203D
:1029F00078010020A4010020D0010020FC0100206B
:102A00003C000020001800402AA003F0BFFE012176
:102A10002E4802F0DBFA07B0BDEC088B00BD10B504
:102A200001212B4802F0C1FA01280AD1FFF731FF3A
:102A30000220FFF72EFF0320FFF72BFF0420FFF7F4
:102A400028FF0121224802F0C1FA10BD10B504464A
:102A5000012C04D101211E4801F078FE29E044BB7D
:102A600000211B4801F072FE00201A4948611A49F2
:102A700048611849886118498861184948611849AE
:102A800048611649886116498861164800218268A4
:102A90000120904713480021826802209047114886
:102AA00000218268032090470E480021826804209C
:102AB000904710BD252E33662C252E33662C252EEF
:102AC00033662C252E33660A0000000000180040F3
:102AD0000048014078010020A4010020D00100201E
:102AE000FC0100203C00002030B50446039D012C71
:102AF00006D0022C06D0032C06D0042C08D105E009
:102B0000B14805E0B14803E0B14801E0B14800BF79
:102B100000BF00EE101AB8EE400ADFEDAF0A80EEFB
:102B2000201A80ED001A00EE102AB8EE400ADFED00
:102B3000AB0A80EE201A80ED011A00EE103AB8EED2
:102B4000400ADFEDA60A80EE201A80ED021AC56069
:102B500030BD884200DD0846904200DA10467047DA
:102B600070B52DED088B0646012E06D0022E07D03B
:102B7000032E08D0042E0CD108E0934C984D08E0A9
:102B8000924C984D05E0924C974D02E0914C974D38
:102B900000BF00BFE16895ED010ABDEEC00A10EE6E
:102BA000100A081A2061206905F08FFC41EC1B0B0C
:102BB0009FED8F0B53EC102B05F0B2FC41EC190B81
:102BC000606905F082FC41EC1A0B53EC192B05F0FF
:102BD0001FFA41EC180B05F01BFC6061E2692169EA
:102BE000881A05F072FC41EC190B9FED810B53EC38
:102BF000102B05F0B5FA41EC180B05F009FCA061AB
:102C00002069E061D4ED000A94ED040AB8EEC00A30
:102C100020EE800A94ED011AD4ED050AF8EEE00AE0
:102C200001EE200A94ED021AD4ED060AF8EEE00A4D
:102C300001EE600ABDEEC00A84ED080A6FF045029D
:102C40004621206AFFF785FF2062BDEC088B70BD2E
:102C500000B52DED068B87B05B4890ED020A10EEB3
:102C6000101A084605F010FF41EC180B564890ED7D
:102C7000010A10EE101A084605F006FF41EC190B88
:102C8000514890ED000A10EE101A084605F0FCFEBF
:102C900041EC1A0B4C48C0684B49096ACDE9041055
:102CA0008DED028B8DED009B53EC1A2B52A003F09F
:102CB0006DFD464890ED020A10EE101A084605F028
:102CC000E3FE41EC180B414890ED010A10EE101A9A
:102CD000084605F0D9FE41EC190B3C4890ED000A7E
:102CE00010EE101A084605F0CFFE41EC1A0B3748DB
:102CF000C0683649096ACDE904108DED028B8DED6F
:102D0000009B53EC1A2B46A003F040FD304890ED99
:102D1000020A10EE101A084605F0B6FE41EC180B38
:102D20002B4890ED010A10EE101A084605F0ACFE93
:102D300041EC190B264890ED000A10EE101A0846D7
:102D400005F0A2FE41EC1A0B2148C0682049096A2F
:102D5000CDE904108DED028B8DED009B53EC1A2B09
:102D600039A003F013FD1B4890ED020A10EE101A73
:102D7000084605F089FE41EC180B164890ED010A53
:102D800010EE101A084605F07FFE41EC190B1148B1
:102D900090ED000A10EE101A084605F075FE41ECA1
:102DA0001A0B0C48C0680B49096ACDE904108DED77
:102DB000028B8DED009B53EC1A2B2DA003F0E6FC4B
:102DC00007B0BDEC068B00BD78010020A4010020F7
:102DD000D0010020FC0100200000C84200401C4639
:102DE000C8000020F4000020200100204C01002039
:102DF0009A9999999999A93F2031703A252E32666E
:102E000020693A252E346620643A252E3466206FD8
:102E100075743A256420696E3A25640A0000000042
:102E20002032703A252E326620693A252E346620EB
:102E3000643A252E3466206F75743A256420696ED5
:102E40003A25640A000000002033703A252E3266CD
:102E500020693A252E346620643A252E3466206F88
:102E600075743A256420696E3A25640A00000000F2
:102E70002034703A252E326620693A252E34662099
:102E8000643A252E3466206F75743A256420696E85
:102E90003A25640A00000000704730B58BB0044644
:102EA0000D460121022000F0E6FF0121042000F080
:102EB00099FF022206216D4800F081FD02220721C0
:102EC0006A4800F07CFD02220821684800F077FD86
:102ED00002220921654800F072FD4FF470700990DC
:102EE00002208DF8280003208DF8290000208DF89D
:102EF0002A0001208DF82B0009A95C4800F0D4FCC1
:102F0000A8B2ADF818000020ADF81A000794ADF88B
:102F1000200006A9564801F090FB6020ADF804009F
:102F20000120ADF806000220ADF8100001A95048BC
:102F300001F018FC08214E4801F0A1FD01A94C4800
:102F400001F049FC08214A4801F0A2FD01A94848C6
:102F500001F08EFC0821464801F0A7FD01A9444874
:102F600001F0ECFC0821424801F0A8FD0121404895
:102F700001F0CEFB01213E4801F0E8FB0BB030BD73
:102F800010B5532140F2F310FFF787FF10BD014643
:102F9000012906D002290AD003290ED0042918D10C
:102FA00011E03448324B343302681A6011E0324881
:102FB0002F4B383302681A600BE030482C4B3C33FF
:102FC00002681A6005E02E48294B403302681A60F7
:102FD00000BF00BF0122826070470146012906D070
:102FE00002290BD0032910D004291CD114E0214858
:102FF0004FF4FA721E4B34331A6014E01E484FF43B
:10300000FA721B4B38331A600DE01C484FF4FA7209
:10301000174B3C331A6006E019484FF4FA72144B10
:1030200040331A6000BF00BF00228260704710B5B5
:103030000346012B06D0022B06D0032B06D0042B0F
:1030400008D105E00B4805E00B4803E00B4801E020
:103050000B4800BF00BFB2F5FA7F01D340F2F31274
:10306000C2F5FA740460416010BD0000000802401F
:1030700000040040280200204402002060020020DA
:103080007C0200201CB50121202000F0ABFE0820AE
:10309000009000208DF8040003208DF8050000202A
:1030A0008DF807006946CB4800F0FEFB1020009029
:1030B00001208DF8040000208DF8060003208DF813
:1030C000050001208DF807006946C24800F0ECFBBE
:1030D0009FEDC10AC14880ED060A1CBD70B50024F1
:1030E00000250821BB4800F05BFC1021B94800F026
:1030F00059FC00BF0821B74800F038FC0028F9D17E
:10310000012000F0A9F9002516E01021B14800F0D7
:1031100047FC6400012000F09FF91021AD4800F049
:1031200041FC0821AB4800F021FC00B1641C0220E6
:1031300000F092F9681CC5B2182DE6DB1021A548F5
:1031400000F02EFC022000F087F91021A14800F0C9
:1031500029FC022000F080F9204670BD70B52DEDED
:10316000028B0546012D01D19C4C00BF00BFFFF72B
:10317000B5FF616881420AD26168411A00EE101AF7
:10318000B8EE400AD4ED020A20EE208A01E09FED5D
:10319000928A84ED078A002517E004F10C016A1C6D
:1031A00001EB820191ED000A04F10C0101EB8501B4
:1031B00081ED000A04F10C0101EB850191ED000A9B
:1031C00030EE280AF0EE408A6D1C042DE5D394ED14
:1031D000000A84ED0A0AB1EE000AC8EE800AC4EDC6
:1031E000000ABDEC028B70BD70B52DED068B044658
:1031F000B0EE408A9FED7A0BB0EE409AF0EE609A06
:1032000018EE100A05F040FC41EC1A0B04F0CEFE5B
:10321000E06194ED070AD4ED060A30EE600AF7EE9D
:10322000000AB4EEE00AF1EE10FA0CD394ED060AAF
:10323000D4ED070A30EE600AF7EE000AB4EEE00AB9
:10324000F1EE10FA03D294ED060A84ED070A002588
:1032500020E004F10C00691C00EB810090ED000AF5
:1032600004F10C0000EB850080ED000A04F10C0075
:1032700000EB850090ED000A10EE101A084605F0EC
:1032800003FC41EC1A0B53EC192B04F0C1FE41EC8A
:10329000190B6D1C042DDCDB94ED000A84ED0A0A89
:1032A00051EC190B04F082FE00EE100AF1EE000A58
:1032B00080EE201A84ED001ABDEC068B70BD01462D
:1032C000012901D1454800BF00BF90ED000AD0EDB3
:1032D0000A0A30EE600AF0EE000AB4EEE00AF1EEFF
:1032E00010FA0CD390ED000AD0ED0A0A30EE600A15
:1032F000F0EE000AB4EEE00AF1EE10FA09D2026A2A
:103300000A2A02D30122828406E0026A521C026267
:1033100002E0002202628284704770B52DED048BBA
:1033200005460E46B0EE408A012D01D12B4C00BF60
:1033300000BF84ED028A666094ED020A10EE101A56
:10334000084605F0A1FB41EC190B53EC192B26A004
:10335000616803F01BFABDEC048B70BD70B52DEDF8
:10336000048B002511E0FFF7B9FE04461B484068B6
:10337000201A6421B1FBF0F000EE100AB8EE400A0A
:1033800030EE080AB0EE408A6D1C0A2DEBDBB2EE7F
:10339000040AC8EE000A1148C0ED020A90ED020AC4
:1033A00010EE101A084605F06FFB41EC190B53ECB8
:1033B000192B12A003F0EAF9BDEC048B70BD10B517
:1033C000FFF78CFE054948600846416810A003F0ED
:1033D000DDF910BD0014024000000000980200203A
:1033E00000000000000000006F66667365743A25F7
:1033F000642020636F66663A25660A00D6D8D0C27C
:10340000BCC6CBE3B1C8C0FDB5C33A25660A00000F
:10341000C8A5C6A4A3AC6F6666736574A3BA256419
:103420000A00000010B504466FF0040000F098F99F
:10343000E11704EB5171C1F3C701394A117010460D
:10344000007800EB4001C1EBC0104FF6FF7101EABC
:10345000C0003449088010BD0146314A12784A4301
:103460004FF0E0235A6100229A611A46126942F035
:1034700001021A6100BF4FF0E022106900F0010262
:103480001AB100F48032002AF5D04FF0E022126920
:1034900022F001024FF0E0231A6100229A61704786
:1034A0000146204A12884A434FF0E0235A61002225
:1034B0009A611A46126942F001021A6100BF4FF088
:1034C000E022106900F001021AB100F48032002AF3
:1034D000F5D04FF0E022126922F001024FF0E02314
:1034E0001A6100229A61704770B504464FF4077064
:1034F00094FBF0F0C6B24FF4077094FBF0F100FBC0
:10350000114085B205E04FF40770FFF7C9FF701E48
:10351000C6B2002EF7D115B12846FFF7C1FF70BD26
:10352000D0020020D2020020014600BF704700BF39
:103530004E4A128802F04002002AF9D0C2B24B4B28
:103540009A80704710B588B004460121084600F003
:1035500049FC0121102000F09FFC0722092144486A
:1035600000F02DFA07220A21414800F028FA4FF412
:10357000C060069002208DF81C008DF81D00002010
:103580008DF81E0001208DF81F0006A9384800F0B4
:103590008BF902940020ADF80C00ADF80E00ADF8E8
:1035A0001000ADF814000C20ADF8120002A92F484D
:1035B00000F0D3FD01212D4800F057FE40212B489B
:1035C00000F03BFF012240F22551284800F003FFA4
:1035D00025208DF8040003208DF805008DF80600E5
:1035E00001208DF8070001A800F06DF808B010BDAB
:1035F00010B540F225511D4800F028FF10B31B48BC
:1036000000F062FEC4B21B48008800F40040C8B954
:103610001848008800F4804060B10A2C03D00020D4
:103620001449088020E01348008840F40040114904
:10363000088019E00D2C06D10E48008840F4804027
:103640000C49088010E00B480088C0F30D000A49BF
:103650000C5408480088401C064908800846008829
:10366000C72801DD0020088010BD000000100140C7
:1036700000000240D8020020D840002009488047BE
:1036800009480047FEE7FEE7FEE7FEE7FEE7FEE744
:10369000FEE7FEE7FEE7FEE704480549054A064B5C
:1036A00070470000210A000889010008004200203C
:1036B000004800200044002000440020324901431B
:1036C000324A1160704770B5002100230F22C47880
:1036D0001CB32E4C246804F4E064C4F5E064C4F325
:1036E0000721C1F10404E3B20A4144789C40E1B2ED
:1036F0008478144021430C07210E254C0578615530
:10370000047804F01F050124AC4005786D11AD006C
:1037100005F1E025C5F8004109E0047804F01F0533
:103720000124AC401B4D0678761145F8264070BD4B
:10373000194A0A400243154B1B1F1A60704739B1E2
:10374000124A121D12680243104B1B1D1A6006E03C
:103750000E4A121D126882430C4B1B1D1A607047E3
:10376000042808D14FF0E021096941F004014FF02D
:10377000E022116107E04FF0E021096921F0040126
:103780004FF0E022116170470000FA050CED00E0F7
:1037900000E400E080E100E080FFFF1F10B5044678
:1037A0009848844208D10121084600F086FB002198
:1037B000012000F082FB76E09348844208D1012189
:1037C000022000F07AFB0021022000F076FB6AE084
:1037D0008E48844208D10121042000F06EFB0021B4
:1037E000042000F06AFB5EE08948844208D1012190
:1037F000082000F062FB0021082000F05EFB52E090
:103800008448844208D10121102000F056FB002199
:10381000102000F052FB46E07F48844208D101218D
:10382000202000F04AFB0021202000F046FB3AE077
:103830007A48844208D10121402000F03EFB00215B
:10384000402000F03AFB2EE07548844208D1012167
:10385000802000F032FB0021802000F02EFB22E0CF
:103860007048844208D10121801500F026FB002118
:10387000A01500F022FB16E06B48844208D101211C
:10388000401500F01AFB0021601500F016FB0AE05D
:103890006648844207D10121001500F00EFB00218B
:1038A000201500F00AFB10BDF0B50A4600210023E8
:1038B000002400BF3DE0012505FA01F3156805EA83
:1038C00003049C4234D105684F000326BE40B54333
:1038D000056015794E00B5400668354305601579D9
:1038E000012D02D01579022D16D185684F000326CF
:1038F000BE40B543856055794E00B5408668354376
:103900008560456801268E40B543456045689679D7
:103910008E40B6B235434560C5684F000326BE40B1
:10392000B543C560D5794E00B540C6683543C5601E
:10393000491C1029BFD3F0BD4FF6FF710160002173
:10394000017141718171C171704708B54FF48032C6
:103950000092009A0A430092009AC261C161009AE3
:10396000C261C2690092C269009208BD024600208D
:1039700013690B400BB1012000E0002070470146A5
:10398000086980B270470246002053690B400BB1B2
:10399000012000E0002070470146486980B270476E
:1039A00001837047418370470AB1018300E041837E
:1039B00070474161704742694A4042617047F0B5C3
:1039C000002300244D07ED0E02FA05F3CE1000F19E
:1039D000200555F826504E07F70E0F26BE40B5437A
:1039E000CF1000F1200646F82750CE1000F1200538
:1039F00055F8265045EA0304CE1000F1200545F89D
:103A00002640F0BD000002400004024000080240D1
:103A1000000C024000100240001402400018024056
:103A2000001C024000200240002402400028024006
:103A3000F948006840F00100F74908600020F649A5
:103A400008310860F4480068F4490840F249086009
:103A5000F348091D0860F348EF4984310860F048D5
:103A60001038091D0860EC48006820F48020EA49FD
:103A700008600020E8490C310860E7498C31086093
:103A800070470021E44A921C11701146087070477B
:103A900010B501460022002300204A11012A02D15C
:103AA000DD4C236808E0022A03D1DB4C7034236824
:103AB00002E0D94C7434236801F01F0201249440C1
:103AC0001C400CB1012000E0002010BD38B50020E2
:103AD00000900024002500BF3120FFF7D9FF0546E4
:103AE0000098401C00900098B0F5A04F01D0002D28
:103AF000F2D03120FFF7CCFF08B1012400E0002410
:103B0000204638BD01460020C34A106820F0F80066
:103B100040EAC10010607047C34908607047002147
:103B2000BD4A703211701170012802D004280AD1E8
:103B300004E00121B84A7032117005E00521B64A4F
:103B40007032117000E000BF00BF7047B7490860D5
:103B5000704770B5049C41EA82150126C6EB5306F6
:103B600045EA0645054345EA0465AB4E361D35601A
:103B700070BDAD4908667047820142EA0172A64BEA
:103B800084331A607047A8498866704710B583016E
:103B900043EA016343EA02739F4C8834236010BDFB
:103BA000A14908677047A049C864704702460020D1
:103BB000994B0833186820F0EC6042EA010318437F
:103BC000954B08331860704702460020924B08332B
:103BD000186820F0784042EA010318438E4B0833FE
:103BE00018607047014600208B4A0832106820F0A8
:103BF000030008431060704787480830006800F0F1
:103C00000C00704701460020834A0832106820F0FB
:103C1000F000084310607047014600207E4A0832D9
:103C2000106820F4E05008431060704701460020FF
:103C3000794A0832106820F4604040EAC100106000
:103C40007047F0B50021002200240225002602233F
:103C5000714F08373F6807F00C0121B1042905D0E6
:103C6000082937D105E0724F076036E0714F0760D1
:103C700033E0694F3F1D3F68C7F38056664F3F1DD5
:103C80003F6807F03F036EB16A4FB7FBF3F7DFF809
:103C900088C10CF1040CDCF800C0CCF3881C07FBD5
:103CA0000CF40CE0624FB7FBF3F7DFF86CC10CF1DA
:103CB000040CDCF800C0CCF3881C07FB0CF4564F56
:103CC0003F1D3F68C7F301477F1C7D00B4FBF5F73C
:103CD000076002E0564F076000BF00BF4E4F083735
:103CE0003F6807F0F0010909534F7A5C0768D74035
:103CF0004760494F08373F6807F4E051890A4E4F43
:103D00007A5C4768D7408760434F08373F6807F4BD
:103D10006041490B484F7A5C4768D740C760F0BDA7
:103D2000002100F44072B2F5407F0AD13A4A0832CD
:103D3000116821F4F811414A02401143364A083211
:103D40001160354A70321268C0F30B031A43324BCC
:103D500070331A60704735494439086070473349F9
:103D600040390860704736490860704701460020B6
:103D7000294A8C32106820F01F004A1E1043264A40
:103D80008C321060704701460020234A8C32106844
:103D900020F4F8504A1E40EA02201F4A8C3210607C
:103DA0007047014600201C4A8C32106820F44010F5
:103DB00008431060704701460020174A8C32106893
:103DC00020F4400008431060704701460020124A6A
:103DD0008C32106820F44030084310607047194955
:103DE0000860704739B10C4A3032126802430A4BFE
:103DF00030331A6006E0084A303212688243064BBC
:103E000030331A607047F9B1034A34321268024302
:103E1000014B34331A601CE000380240FFFFF6EA21
:103E2000103000240030002000004742800E47423E
:103E30000024F40000127A00DA020020FFFCFF0FD9
:103E40005C014742E01147428F4A126882438E4B21
:103E50001A60704739B18C4A121D126802438A4BAE
:103E60001B1D1A6006E0884A121D12688243864BA9
:103E70001B1D1A60704739B1834A0C321268024325
:103E8000814B0C331A6006E07F4A0C321268824381
:103E90007D4B0C331A60704739B17B4A103212687F
:103EA0000243794B10331A6006E0774A10321268E9
:103EB0008243754B10331A60704739B1724A243A05
:103EC00012680243704B243B1A6006E06E4A243AA3
:103ED000126882436C4B243B1A60704739B16A4ABE
:103EE000203A12680243684B203B1A6006E0664A9B
:103EF000203A12688243644B203B1A60704739B104
:103F0000614A1C3A126802435F4B1C3B1A6006E090
:103F10005D4A1C3A126882435B4B1C3B1A60704737
:103F200039B1594A143A12680243574B143B1A608C
:103F300006E0554A143A12688243534B143B1A6008
:103F4000704739B1504A103A126802434E4B103B49
:103F50001A6006E04C4A103A126882434A4B103B02
:103F60001A60704739B1484A1C3212680243464B06
:103F70001C331A6006E0444A1C3212688243424BEA
:103F80001C331A60704739B13F4A2032126802432D
:103F90003D4B20331A6006E03B4A203212688243D0
:103FA000394B20331A60704739B1374A24321268CE
:103FB0000243354B24331A6006E0334A2432126838
:103FC0008243314B24331A60704739B12E4A2C3268
:103FD000126802432C4B2C331A6006E02A4A2C321A
:103FE00012688243284B2C331A60704739B1264A35
:103FF000303212680243244B30331A6006E0224A02
:10400000303212688243204B30331A6070470128E7
:1040100008D11D493C31096841F008011A4A3C3277
:10402000116007E018493C31096821F00801164A7F
:104030003C321160704739B1134A273A1278024373
:10404000114B273B1A7006E00F4A273A1278824339
:104050000D4B273B1A7070470B484030006840F00A
:104060008070094940310860704701460020064AC7
:10407000283A12680A400AB1012000E00020704787
:1040800001492639087070473438024010B504469B
:10409000FA48844208D101211020FFF752FF002185
:1040A0001020FFF74EFF57E0F548844209D1012167
:1040B0004804FFF735FF00214FF40030FFF730FFD1
:1040C0004AE0F048844209D101218804FFF728FF23
:1040D00000214FF48020FFF723FF3DE0EA488442AF
:1040E00009D10121C804FFF71BFF00214FF4002074
:1040F000FFF716FF30E0E548844209D101210805A9
:10410000FFF70EFF00214FF48010FFF709FF23E0B7
:10411000DF48844208D101212020FFF712FF00214F
:104120002020FFF70EFF17E0DA48844209D1012171
:104130008807FFF7F5FE00214FF08040FFF7F0FE03
:104140000AE0D548844207D101214005FFF7E8FE87
:1041500000216005FFF7E4FE10BD2DE9FF4705468D
:104160000E460024A14600BFA046B08900B100BFA2
:104170002C8A24F44054F08804432C82AC8941F208
:104180000C608443B0883189084371890843044333
:10419000AC81AC8A24F44074B0890443AC82684694
:1041A000FFF74FFDB548854202D0B948854202D19C
:1041B000DDF80C9001E0DDF80890A88900F40040DB
:1041C00040B109EBC90000EB091031684900B0FBB0
:1041D000F1F707E009EBC90000EB0910316889002D
:1041E000B0FBF1F76420B7FBF0F004012009642173
:1041F00001FB1078A88900F4004040B1322000EBA8
:10420000C800B0FBF1F000F00700044308E03220E2
:1042100000EB08106421B0FBF1F000F00F00044344
:104220002C81BDE8FF874FF4165101600021818089
:10423000C18001810C21418100218181704710B52D
:1042400002460020108A20F470600B884C882343BB
:104250008C882343CC8823431843108210BD00214F
:10426000018041808180C180704721B1828942F400
:104270000052828104E082894DF6FF731A408281E8
:104280007047028B02F47F420283028B0A4302834F
:10429000704721B1828942F40042828103E0828921
:1042A000C2F30E028281704721B1828A42F4006219
:1042B000828204E0828A4FF2FF731A408282704742
:1042C000C1F308028280704701468888C0F3080065
:1042D0007047028A4FF6F0731A400282028A0A433C
:1042E0000282704721B1828942F00202828104E099
:1042F00082894FF6FD731A408281704782894FF29E
:10430000FF731A40828182890A4382817047028A40
:104310004FF6DF731A400282028A0A430282704714
:1043200021B1028A42F48042028204E0028A4BF602
:10433000FF731A4002827047818941F00101818137
:10434000704721B1828A42F00802828204E0828AA8
:104350004FF6F7731A4082827047028BD2B2028303
:10436000028B42EA01220283704721B1828A42F025
:104370002002828204E0828A4FF6DF731A40828232
:10438000704721B1828A42F01002828204E0828A60
:104390004FF6EF731A4082827047828A4FF6FB73A2
:1043A0001A408282828A0A438282704721B1828ABD
:1043B00042F00202828204E0828A4FF6FD731A40C4
:1043C000828270471AB1838A0B43838202E0838A18
:1043D0008B4383827047F0B50346002400260025F6
:1043E000002040F66A17B94200D100BF1846C1F359
:1043F000421401F01F06012707FA06F5012C01D12E
:104400000C3004E0022C01D1103000E014301AB15D
:1044100007682F43076002E00768AF430760F0BDFD
:1044200002460020B1F5007F00D100BF13880B4089
:104430000BB1012000E00020704701F40072B2F5DA
:10444000007F00D100BFCA430280704770B50246AA
:10445000002400230025002040F66A16B14200D156
:1044600000BFC1F3421501F01F03012606FA03F352
:10447000012D13D19689334017E000000010014050
:104480000044004000480040004C00400050004004
:104490000014014000780040007C0040022D02D151
:1044A000168A334001E0968A33400C12012606FA40
:1044B00004F41688344013B10CB1012000E0002050
:1044C00070BD10B50022002340F66A14A14200D14D
:1044D00000BF0A1201249440A3B2DC43048010BD43
:1044E00010B50446FE48844208D101210846FFF772
:1044F00028FD00210120FFF724FD9DE0B4F1804F4D
:1045000008D101210846FFF70BFD00210120FFF72C
:1045100007FD91E0F348844208D101210220FFF712
:10452000FFFC00210220FFF7FBFC85E0EE488442FF
:1045300008D101210420FFF7F3FC00210420FFF73C
:10454000EFFC79E0E948844208D101210820FFF717
:10455000E7FC00210820FFF7E3FC6DE0E44884421B
:1045600008D101211020FFF7DBFC00211020FFF70C
:10457000D7FC61E0DF48844208D101212020FFF709
:10458000CFFC00212020FFF7CBFC55E0DA48844225
:1045900008D101210220FFF7D4FC00210220FFF7FF
:1045A000D0FC49E0D548844209D101210804FFF735
:1045B000C8FC00214FF48030FFF7C3FC3CE0D0483A
:1045C000844209D101214804FFF7BBFC00214FF4CC
:1045D0000030FFF7B6FC2FE0CA48844209D1012120
:1045E0008804FFF7AEFC00214FF48020FFF7A9FC00
:1045F00022E0C548844208D101214020FFF790FC09
:1046000000214020FFF78CFC16E0C048844208D10E
:1046100001218020FFF784FC00218020FFF780FC2F
:104620000AE0BB48844207D101218015FFF778FCDE
:104630000021A015FFF774FC10BD00220288A84BD2
:1046400098420ED0AC4B98420BD0B0F1804F08D0BE
:10465000A44B984205D0A44B984202D0A34B984259
:1046600004D14FF68F731A404B881A43A04B9842DF
:1046700007D0A04B984204D04FF6FF431A400B8955
:104680001A4302804B68C3620B880385944B98429F
:1046900002D0994B984201D18B7A03860123838201
:1046A00070474FF0FF31416000210180018141805E
:1046B000817270470185828270470A460021018815
:1046C0004FF68F7319401143018070474162704764
:1046D000C16270470146486A70470146088D7047BD
:1046E00021B1028842F00202028004E002884FF603
:1046F000FD731A400280704721B1028842F0040223
:10470000028004E002884FF6FB731A400280704773
:1047100021B1028842F08002028004E002884FF654
:104720007F731A400280704702884FF6F7731A4071
:10473000028002880A430280704702884FF6FF43D6
:104740001A40028002880A430280704721B1028821
:1047500042F00102028004E002884FF6FE731A4024
:104760000280704770B5002400220023058C4FF6AC
:10477000FE7635400584028C8388048B4FF68F7556
:104780002C40B51E2C400D882C43751E2A408D8967
:104790002A434D882A43524DA84202D0564DA84282
:1047A00013D14FF6F7752A40CD892A434FF6FB7592
:1047B0002A408D882A434FF6FF652B404FF6FF5560
:1047C0002B400D8A2B434D8A2B43838004838D68B5
:1047D0004563028470BD70B5002400220023058C5F
:1047E0004FF6EF7635400584028C8388048B48F6BB
:1047F000FF752C404FF6FF452C400D884FF6FF7695
:1048000006EA05252C434FF6DF752A408D8906EA16
:1048100005152A434D8806EA05152A43304DA8425E
:1048200002D0354DA8421DD14FF67F752A40CD8963
:104830004FF6FF7606EA05152A434FF6BF752A4064
:104840008D8806EA05152A434FF6FF352B404FF2B7
:10485000FF752B400D8A06EA85052B434D8A06EA33
:1048600085052B43838004838D688563028470BD36
:1048700070B5002400220023058C4FF6FF663540FA
:104880000584028C8388848B4FF68F752C404FF6FD
:10489000FC752C400D882C434FF6FF552A408D891E
:1048A0004FF6FF7606EA05252A434D8806EA0525D8
:1048B0002A430B4DA84202D00F4DA84238D14FF2E7
:1048C000FF752A40CD894FF6FF7606EA05252A4373
:1048D0004FF6FF352A408D8806EA05252A4319E060
:1048E000000001400004004000080040000C0040AF
:1048F000001000400014004000040140004001404E
:10490000004401400048014000180040001C0040E5
:10491000002000404EF6FF752B404DF6FF752B40F2
:104920000D8A06EA05152B434D8A06EA05152B4329
:10493000838084838D68C563028470BD70B5002256
:1049400000230024058C4EF6FF7635400584038C49
:104950008488828B48F6FF752A404FF6FF452A402F
:104960000D884FF6FF7606EA05252A434DF6FF75BA
:104970002B408D8906EA05352B434D8806EA05351F
:104980002B43FE4DA84202D0FD4DA84208D14BF664
:10499000FF752C400D8A4FF6FF7606EA85152C43ED
:1049A000848082838D680564038470BD002101804A
:1049B0004180818081608181C18101824182704713
:1049C00070B50346002000241846183001258D409C
:1049D000ACB21D8CA5431D8409B108290AD100EB96
:1049E000610005684FF68F76354005600568154310
:1049F00005600FE00D1FC5F34E052844056848F615
:104A0000FF763540056005684FF6FF7606EA022618
:104A10003543056070BD4163704781637047C16372
:104A20007047016470470A460021018B4FF68F736F
:104A300019401143018370470A460021018B48F653
:104A4000FF7319404FF6FF7303EA022319430183F2
:104A500070470A460021818B4FF68F73194011432E
:104A6000818370470A460021818B48F6FF73194005
:104A70004FF6FF7303EA02231943818370470A4606
:104A80000021018B4FF6F7731940114301837047E2
:104A90000A460021018B4FF2FF7319404FF6FF7356
:104AA00003EA02231943018370470A460021818BE0
:104AB0004FF6F77319401143818370470A4600216E
:104AC000818B4FF2FF7319404FF6FF7303EA022305
:104AD0001943818370470A460021018B4FF6FB730F
:104AE00019401143018370470A460021018B4FF69C
:104AF000FF3319404FF6FF7303EA02231943018382
:104B000070470A460021818B4FF6FB731940114311
:104B1000818370470A460021818B4FF6FF3319408D
:104B20004FF6FF7303EA02231943818370470A4655
:104B30000021018B4FF67F731940114301837047A9
:104B40000A460021018BC1F30E014FF6FF7303EA01
:104B500002231943018370470A460021818B4FF6D7
:104B60007F7319401143818370470A460021818B6E
:104B7000C1F30E014FF6FF7303EA02231943818349
:104B800070470A460021018C4FF6FD73194011430E
:104B9000018470470A460021018C4FF6F7731940D3
:104BA0001143018470470A460021018C4FF6DF73E0
:104BB00019404FF6FF7303EA02131943018470474B
:104BC0000A460021018C4FF67F7319404FF6FF73A0
:104BD00003EA02131943018470470A460021018C3D
:104BE0004FF6FF5319404FF6FF7303EA02231943B0
:104BF000018470470A460021018C4FF2FF7319406F
:104C00004FF6FF7303EA02231943018470470A46F3
:104C10000021018C4DF6FF7319404FF6FF7303EA34
:104C2000023319430184704730B5002301248C40BE
:104C3000A3B2048C9C430484048C02FA01F5ADB247
:104C40002C43048430BD30B5002304248C40A3B22F
:104C5000048C9C430484048C02FA01F5ADB22C430D
:104C6000048430BD828B4FF2FF331A408283828BE3
:104C70004FF6FF7303EA01231A4382837047F0B5AE
:104C80000C461546002100220026078C4EF6FF7CBC
:104C900007EA0C070784818B028C4FF6FF7707EA3F
:104CA000043640F6FF4739404FF6FF7707EA0527FD
:104CB00039434FF6FF7707EA0337394345F6FF7765
:104CC0003A4046F480573A4381830284F0BD828B98
:104CD0004FF6F3731A408283828B0A4382837047B4
:104CE000F0B50C461546002100220026078C4FF631
:104CF000FF6C07EA0C070784818B028C4FF6FF7765
:104D000007EA04264FF60C7739404FF6FF7707EA9B
:104D100003172F4339434FF2FF573A4046F4807749
:104D20003A4381830284F0BD028B4FF2FF331A4075
:104D30000283028B4FF6FF7303EA01231A430283B7
:104D40007047F0B50C461546002100220026078C5E
:104D50004FF6EF7C07EA0C070784018B028C4FF6B5
:104D6000FF7707EA041640F6FF4739404FF6FF7712
:104D700007EA033739434FF6FF7703E000000140AD
:104D80000004014007EA052739434FF65F773A40B0
:104D900046F010073A4301830284F0BD028B4FF6C0
:104DA000F3731A400283028B0A4302837047F0B503
:104DB0000C46154600210022068C4FF6FE773E4039
:104DC0000684018B028C4FF60C7631407E1C06EA7D
:104DD00003162E4331434FF6F576324044F0010678
:104DE000324301830284F0BD70B505460C4620882D
:104DF00050B92389A28861882846FFF7D8FFE18847
:104E00002846FFF7CBFF25E0208804280AD1238914
:104E1000A28861882846FFF794FFE1882846FFF7BB
:104E200083FF17E0208808280AD12389A288618897
:104E30002846FFF755FFE1882846FFF748FF09E0BD
:104E40002389A28861882846FFF719FFE188284650
:104E5000FFF708FF70BD00210180418001218180A2
:104E60000021C180018170472DE9F04105460C46C3
:104E700000260127608808B9022600E00026A088E5
:104E8000012801D1022700E001272088A0B9238949
:104E9000A28861882846FFF78AFFE1882846FFF745
:104EA0007DFF23893A4631462846FFF74AFFE188CD
:104EB0002846FFF739FF13E02389A2886188284636
:104EC000FFF73FFFE1882846FFF72EFF23893A4688
:104ED00031462846FFF76BFFE1882846FFF75EFF63
:104EE000BDE8F0810146486B70470146886B70470A
:104EF0000146C86B70470146086C70470A884B88AA
:104F00001A438B881A43CB881A430B891A434B895F
:104F10001A438B891A43A0F844207047002101806E
:104F200041808180C180018141818181704731B19F
:104F3000B0F8442042F40042A0F8442005E0B0F864
:104F40004420C2F30E02A0F84420704721B18288A9
:104F500042F00402828004E082884FF6FB731A401C
:104F60008280704721B1828842F00102828004E091
:104F700082884FF6FE731A40828070471AB1838987
:104F80000B43838102E083898B4383817047818255
:104F9000704702460020138A0B400BB1012000E04D
:104FA00000207047CA430282704730B50246002095
:104FB00000230024158A05EA0103958905EA010406
:104FC00013B10CB1012000E0002030BDCA430282C1
:104FD000704741EA0203A0F8483070471AB183894C
:104FE0000B43838102E083898B438381704721B126
:104FF000828842F00802828004E082884FF6F773CC
:105000001A408280704701894FF6F8721140018181
:1050100070470A46002101894FF68F7319401143EA
:105020000181704730B504460D4629462046FFF7FA
:10503000F0FF208940F00700208130BD2DE9F041CC
:1050400004460D4616461F46602D06D13B460122FA
:1050500031462046FFF775FE05E03B46012231460A
:105060002046FFF7A4FE29462046FFF7D2FF2089FD
:1050700040F007002081BDE8F08130B50C460021EA
:105080000189C9B24FF6FF7505EA0325154325438B
:105090002943018130BD2DE9F04105460E461746F2
:1050A0009846002443463A4631462846FFF7E5FF36
:1050B0002C894FF6F870044044F007044FF68F70C7
:1050C000044044F070042C81BDE8F081F0B5044642
:1050D0000D4616461F463B46324629462046FFF7F8
:1050E000CCFF208940F480402081F0BD82884FF6BB
:1050F0008F731A40828082880A43828070470289B7
:105100004FF6F8731A40028102890A430281704700
:1051100002894FF67F731A40028102890A43028195
:105120007047F0B50C4615461E46002100220023AC
:105130000189028B038C4FF6F877394021434FF6F3
:10514000FC473A4040F201173A434FF6DD773B40C7
:105150004FF6FF7707EA06172F433B43018102838F
:105160000384F0BD21B1828842F08002828004E095
:1051700082884FF67F731A4082807047A0F85010E3
:105180007047000010B50446FB48844208D1012155
:105190008014FEF7D6FE0021A014FEF7D2FE3CE0FC
:1051A000F648844208D101210014FEF7B9FE00211F
:1051B0002014FEF7B5FE30E0F148844208D1012109
:1051C000C013FEF7ADFE0021E013FEF7A9FE24E0B8
:1051D000EC48844208D101214014FEF7B2FE0021C0
:1051E0006014FEF7AEFE18E0E748844209D10121C1
:1051F0000805FEF7A6FE00214FF48010FEF7A1FE81
:105200000BE0E248844208D101214805FEF799FEEF
:1052100000214FF40010FEF794FE10BD10B50022DF
:10522000028802F441520B884C8823438C88234324
:10523000CC8823430C8923434C8923438C89234303
:10524000CC8923431A430280838B4FF2FF7423409F
:1052500083830B8A038210BD2DE9F04F00250223C2
:1052600000244FF0010900220026002794469046B2
:10527000B0F81CA04FF2400B0AEA0B0AA0F81CA0E1
:105280004FF0020AA0F820A0858BD1F808A0BAF14F
:10529000020F01D100BF82E0B1F804A0BAF1000F03
:1052A00002D14FF0010901E04FF00209DFF8E0A25E
:1052B000DAF800A00AF4000ABAF1000F09D0DFF80A
:1052C000D0A2DAF800A02AF4000ADFF8C4B2CBF8C2
:1052D00000A0DFF8BCA20AF17C0ADAF800A0CAF349
:1052E000881CDFF8ACA20AF17C0ADAF800A0CAF345
:1052F0000278DFF89CA2AAF1040ADAF800A00AF00A
:105300003F07DFF88CA2AAF1040ADAF800A00AF439
:10531000800ABAF5800F08D1DFF878A2BAFBF7FA55
:105320000AFB0CFABAFBF8F607E0DFF86CA2BAFB4E
:10533000F7FA0AFB0CFABAFBF8F6B1F806A0BAF5D0
:10534000007F0ED14FEA162A0AEB8A0A4FEA4A0A70
:10535000D1F808B0BAFBFBFA0AF1050A1FFA8AF283
:105360000FE04FEA491AB6FBFAFA0AEB8A0A4FEA4B
:105370004A0AD1F808B0BAFBFBFA0AF1050A1FFA8B
:105380008AF24FF00A0AB2FBFAF202F00104A2EB31
:10539000040ACAF34F034FF6FF7A0AEA0424022BE9
:1053A00001DBFF2B01DD02230024B1F806A04AEA4D
:1053B000040A4AEA030AA0F820A0B1F804A0B1F850
:1053C0000CB04AEA0B0AB1F802B04AEA0B0AB1F88B
:1053D00000B04AEA0B0A4AF4006A4AEA05058583E6
:1053E000BDE8F08F0021018041808180C180018172
:1053F00041818181C18107210182704700210180A3
:1054000041808180C18002218160002181817047BB
:1054100021B1028842F04002028004E002884FF687
:10542000BF731A400280704721B1828B42F48062C0
:10543000828304E0828B4FF6FF331A4082837047E9
:1054400002884FF2FF731A40028002880A430280EA
:105450007047B1F5804F04D1028842F48042028047
:1054600004E002884BF6FF731A40028070474FF643
:10547000FF62914204D0028842F48072028004E00C
:1054800002884FF6FF631A400280704721B182887C
:1054900042F00402828004E082884FF6FB731A40D7
:1054A0008280704721B1828842F01002828004E03D
:1054B00082884FF6EF731A408280704730B5002221
:1054C0000023848B4FF240052C4084830224048403
:1054D000828B0C88B4F5007F01D00C8814B94FF48E
:1054E000807308E00C88B4F5407F03D00C88B4F5D5
:1054F000807F00D100238C888D892C434D882C43DC
:105500001C4344F400642243828330BD01468889F1
:1055100070478181704721B1028842F400520280B5
:1055200004E002884DF6FF731A400280704701883C
:1055300041F480510180704702460020012901D0CA
:10554000108B00E0908A70470146088A70471AB1B4
:1055500083880B43838002E083888B43838070477A
:1055600030B5002400230C110125A540ABB2AAB12F
:1055700085881D43858014E00030014000380040DC
:10558000003C004000340140005001400054014004
:105590000838024000127A000024F40085889D43F8
:1055A000858030BD0246002013890B400BB10120DD
:1055B00000E000207047CA4302817047F0B5024600
:1055C000002000240023002501F00F070126BE4023
:1055D000B4B20B1101269E40B3B2968806EA0305C9
:1055E0001689264016B10DB1012000E00020F0BD63
:1055F00010B5002201F00F040123A3409AB2D34357
:10560000038110BD10B58CB004461E230BAA03A95C
:10561000204600F0ABFE0090009810B101200CB0C5
:1056200010BD9DF82C00044400200B900EE0404873
:105630009DF82C2050F8221003A800F0FFFD00B9BF
:1056400008E09DF82C00401CC0B20B909DF82C0087
:105650000728ECD300BF9DF82C00072863D2DFE8B1
:1056600000F004053C5E6564630000BF31A001F0FA
:105670008DF831A001F08AF83FA001F087F84EA024
:1056800001F084F85CA001F081F86BA001F07EF8D5
:1056900079A001F07BF886A001F078F88BA001F0EA
:1056A00075F890A001F072F894A001F06FF899A03D
:1056B00001F06CF89EA001F069F8A4A001F066F872
:1056C000B0A001F063F8BDA001F060F8C8A001F03F
:1056D0005DF8D4A001F05AF89AE216A001F056F84D
:1056E000E0A001F053F800200B900EE0ED480068B8
:1056F0009DF82C2000EBC2004168EBA001F046F8B9
:105700009DF82C00401CC0B20B90E648007D9DF82F
:105710002C108842EADC07A001F038F878E205A0F6
:1057200001F034F8C4E171E245E219E2ECE1000075
:10573000EC0200200D0A00002D2D2D2D2D2D2D2DDC
:105740002D2D2D2D2D2D2D2D2D2D2D2D2D2D2D2D89
:1057500055534D4152542056332E312D2D2D2D2D84
:105760002D2D2D2D2D2D2D2D2D2D2D2D2D2D2D2D69
:105770002D2D2D200D0A00002020202055534D41B5
:105780005254CAC7D3C9414C49454E54454BBFAA90
:10579000B7A2B5C4D2BBB8F6C1E9C7C9B5C4B4AEE7
:1057A000BFDAB5F7CAD4BBA5BDBBD7E9BCFE2CCDCB
:1057B000A8B9FD200D0A0000CBFC2CC4E3BFC9D260
:1057C000D4CDA8B9FDB4AEBFDAD6FACAD6B5F7D3F0
:1057D000C3B3CCD0F2C0EFC3E6B5C4C8CEBACEBA1C
:1057E000AFCAFD2CB2A2D6B4D0D02ED2F2B4CB2CFC
:1057F000C4E3BFC90D0A0000D2D4CBE6D2E2B8FCA4
:10580000B8C4BAAFCAFDB5C4CAE4C8EBB2CECAFDCB
:1058100028D6A7B3D6CAFDD7D62831302F3136BD0A
:10582000F8D6C629A1A2D7D6B7FBB4AEA1A2BAAF0B
:10583000CAFDC8EB0D0A0000BFDAB5D8D6B7B5C8A7
:10584000D7F7CEAAB2CECAFD292CB5A5B8F6BAAF05
:10585000CAFDD7EEB6E0D6A7B3D63130B8F6CAE463
:10586000C8EBB2CECAFD2CB2A2D6A7B3D6BAAFCA85
:10587000FDB7B5200D0A0000BBD8D6B5CFD4CABE3F
:105880002ED0C2D4F6B2CECAFDCFD4CABEBDF8D691
:10589000C6C9E8D6C3B9A6C4DC2CD0C2D4F6BDF8BC
:1058A000D6C6D7AABBBBB9A6C4DC2E0D0A00000021
:1058B000BCBCCAF5D6A7B3D63A7777772E6F70659A
:1058C0006E6564762E636F6D0D0A000055534D4171
:1058D0005254D3D037B8F6CFB5CDB3C3FCC1EE3AEE
:1058E0000D0A00003F3A202020202020BBF1C8A153
:1058F000B0EFD6FAD0C5CFA20D0A000068656C7073
:105900003A202020BBF1C8A1B0EFD6FAD0C5CFA273
:105910000D0A00006C6973743A202020BFC9D3C3FC
:10592000B5C4BAAFCAFDC1D0B1ED0D0A0A0000007E
:1059300069643A2020202020BFC9D3C3BAAFCAFD72
:10594000B5C44944C1D0B1ED0D0A0A006865783A82
:1059500020202020B2CECAFD3136BDF8D6C6CFD425
:10596000CABE2CBAF3B8FABFD5B8F12BCAFDD7D648
:10597000BCB4D6B4D0D0BDF8D6C6D7AABBBB0D0A2E
:105980000A0000006465633A20202020B2CECAFDE0
:105990003130BDF8D6C6CFD4CABE2CBAF3B8FABFE0
:1059A000D5B8F12BCAFDD7D6BCB4D6B4D0D0BDF88B
:1059B000D6C6D7AABBBB0D0A0A00000072756E746A
:1059C000696D653A312CBFAAC6F4BAAFCAFDD4CB13
:1059D000D0D0BCC6CAB13B302CB9D8B1D5BAAFCA49
:1059E000FDD4CBD0D0BCC6CAB13B0D0A0A00000022
:1059F000C7EBB0B4D5D5B3CCD0F2B1E0D0B4B8F1E8
:105A0000CABDCAE4C8EBBAAFCAFDC3FBBCB0B2CED4
:105A1000CAFDB2A2D2D4BBD8B3B5BCFCBDE1CAF8B2
:105A20002E0D0A002D2D2D2D2D2D2D2D2D2D2D2D15
:105A30002D2D2D2D2D2D2D2D2D2D2D2D2D2D414C63
:105A400049454E54454B2D2D2D2D2D2D2D2D2D2DD4
:105A50002D2D2D2D2D2D2D2D2D2D2D2D2D2D2D2083
:105A60000D0A00002D2D2D2D2D2D2D2D2D2D2D2D03
:105A70002D2D2D2D2D2D2D2D2D2D2D2D2DBAAFCAAA
:105A8000FDC7E5B5A52D2D2D2D2D2D2D2D2D2D2D24
:105A90002D2D2D2D2D2D2D2D2D2D2D2D2D2D2D2D36
:105AA000200D0A008803002025730D0A0000000065
:105AB000EFA000F06BFE00200B901AE0FC49096893
:105AC0009DF82C2001EBC20101AB02AA486803A992
:105AD00000F072FCF64800689DF82C1050F8312058
